{
  "_format": "hh-sol-artifact-1",
  "contractName": "Typessolidity",
  "sourceName": "contracts/Typessolidity.sol",
  "abi": [
    {
      "inputs": [],
      "name": "addressVar",
      "outputs": [
        {
          "internalType": "address",
          "name": "",
          "type": "address"
        }
      ],
      "stateMutability": "view",
      "type": "function"
    },
    {
      "inputs": [],
      "name": "boolVar",
      "outputs": [
        {
          "internalType": "bool",
          "name": "",
          "type": "bool"
        }
      ],
      "stateMutability": "view",
      "type": "function"
    },
    {
      "inputs": [],
      "name": "bytes32Var",
      "outputs": [
        {
          "internalType": "bytes32",
          "name": "",
          "type": "bytes32"
        }
      ],
      "stateMutability": "view",
      "type": "function"
    },
    {
      "inputs": [],
      "name": "currentStatus",
      "outputs": [
        {
          "internalType": "enum Typessolidity.Status",
          "name": "",
          "type": "uint8"
        }
      ],
      "stateMutability": "view",
      "type": "function"
    },
    {
      "inputs": [],
      "name": "intVar",
      "outputs": [
        {
          "internalType": "int256",
          "name": "",
          "type": "int256"
        }
      ],
      "stateMutability": "view",
      "type": "function"
    },
    {
      "inputs": [
        {
          "internalType": "bool",
          "name": "_boolVar",
          "type": "bool"
        }
      ],
      "name": "setBool",
      "outputs": [],
      "stateMutability": "nonpayable",
      "type": "function"
    },
    {
      "inputs": [
        {
          "internalType": "enum Typessolidity.Status",
          "name": "_status",
          "type": "uint8"
        }
      ],
      "name": "setEnum",
      "outputs": [],
      "stateMutability": "nonpayable",
      "type": "function"
    },
    {
      "inputs": [
        {
          "internalType": "address",
          "name": "userAddr",
          "type": "address"
        },
        {
          "internalType": "string",
          "name": "_name",
          "type": "string"
        },
        {
          "internalType": "uint256",
          "name": "_age",
          "type": "uint256"
        }
      ],
      "name": "setUser",
      "outputs": [],
      "stateMutability": "nonpayable",
      "type": "function"
    },
    {
      "inputs": [],
      "name": "stringVar",
      "outputs": [
        {
          "internalType": "string",
          "name": "",
          "type": "string"
        }
      ],
      "stateMutability": "view",
      "type": "function"
    },
    {
      "inputs": [],
      "name": "uintVar",
      "outputs": [
        {
          "internalType": "uint256",
          "name": "",
          "type": "uint256"
        }
      ],
      "stateMutability": "view",
      "type": "function"
    },
    {
      "inputs": [
        {
          "internalType": "address",
          "name": "",
          "type": "address"
        }
      ],
      "name": "users",
      "outputs": [
        {
          "internalType": "string",
          "name": "name",
          "type": "string"
        },
        {
          "internalType": "uint256",
          "name": "age",
          "type": "uint256"
        }
      ],
      "stateMutability": "view",
      "type": "function"
    }
  ],
  "bytecode": "0x608060405234801561001057600080fd5b50610d01806100206000396000f3fe608060405234801561001057600080fd5b50600436106100a95760003560e01c8063af431f0311610071578063af431f0314610155578063af44550014610171578063e9074ca31461018f578063ec1dfc7b146101ad578063ef0f3013146101c9578063ef8a9235146101e7576100a9565b80631e26fd33146100ae57806335f7fb2b146100ca57806341a9207b146100e857806349cad0fa14610106578063a87430ba14610124575b600080fd5b6100c860048036038101906100c391906104af565b610205565b005b6100d2610222565b6040516100df91906104eb565b60405180910390f35b6100f0610235565b6040516100fd919061051f565b60405180910390f35b61010e61023b565b60405161011b919061057b565b60405180910390f35b61013e600480360381019061013991906105c2565b610261565b60405161014c92919061067f565b60405180910390f35b61016f600480360381019061016a9190610810565b61030d565b005b610179610389565b6040516101869190610898565b60405180910390f35b61019761038f565b6040516101a491906108b3565b60405180910390f35b6101c760048036038101906101c291906108fa565b61041d565b005b6101d161044a565b6040516101de9190610940565b60405180910390f35b6101ef610450565b6040516101fc91906109d2565b60405180910390f35b80600260146101000a81548160ff02191690831515021790555050565b600260149054906101000a900460ff1681565b60005481565b600260009054906101000a900473ffffffffffffffffffffffffffffffffffffffff1681565b600660205280600052604060002060009150905080600001805461028490610a1c565b80601f01602080910402602001604051908101604052809291908181526020018280546102b090610a1c565b80156102fd5780601f106102d2576101008083540402835291602001916102fd565b820191906000526020600020905b8154815290600101906020018083116102e057829003601f168201915b5050505050908060010154905082565b604051806040016040528083815260200182815250600660008573ffffffffffffffffffffffffffffffffffffffff1673ffffffffffffffffffffffffffffffffffffffff16815260200190815260200160002060008201518160000190816103769190610bf9565b5060208201518160010155905050505050565b60015481565b6003805461039c90610a1c565b80601f01602080910402602001604051908101604052809291908181526020018280546103c890610a1c565b80156104155780601f106103ea57610100808354040283529160200191610415565b820191906000526020600020905b8154815290600101906020018083116103f857829003601f168201915b505050505081565b80600560006101000a81548160ff021916908360018111156104425761044161095b565b5b021790555050565b60045481565b600560009054906101000a900460ff1681565b6000604051905090565b600080fd5b600080fd5b60008115159050919050565b61048c81610477565b811461049757600080fd5b50565b6000813590506104a981610483565b92915050565b6000602082840312156104c5576104c461046d565b5b60006104d38482850161049a565b91505092915050565b6104e581610477565b82525050565b600060208201905061050060008301846104dc565b92915050565b6000819050919050565b61051981610506565b82525050565b60006020820190506105346000830184610510565b92915050565b600073ffffffffffffffffffffffffffffffffffffffff82169050919050565b60006105658261053a565b9050919050565b6105758161055a565b82525050565b6000602082019050610590600083018461056c565b92915050565b61059f8161055a565b81146105aa57600080fd5b50565b6000813590506105bc81610596565b92915050565b6000602082840312156105d8576105d761046d565b5b60006105e6848285016105ad565b91505092915050565b600081519050919050565b600082825260208201905092915050565b60005b8381101561062957808201518184015260208101905061060e565b60008484015250505050565b6000601f19601f8301169050919050565b6000610651826105ef565b61065b81856105fa565b935061066b81856020860161060b565b61067481610635565b840191505092915050565b600060408201905081810360008301526106998185610646565b90506106a86020830184610510565b9392505050565b600080fd5b600080fd5b7f4e487b7100000000000000000000000000000000000000000000000000000000600052604160045260246000fd5b6106f182610635565b810181811067ffffffffffffffff821117156107105761070f6106b9565b5b80604052505050565b6000610723610463565b905061072f82826106e8565b919050565b600067ffffffffffffffff82111561074f5761074e6106b9565b5b61075882610635565b9050602081019050919050565b82818337600083830152505050565b600061078761078284610734565b610719565b9050828152602081018484840111156107a3576107a26106b4565b5b6107ae848285610765565b509392505050565b600082601f8301126107cb576107ca6106af565b5b81356107db848260208601610774565b91505092915050565b6107ed81610506565b81146107f857600080fd5b50565b60008135905061080a816107e4565b92915050565b6000806000606084860312156108295761082861046d565b5b6000610837868287016105ad565b935050602084013567ffffffffffffffff81111561085857610857610472565b5b610864868287016107b6565b9250506040610875868287016107fb565b9150509250925092565b6000819050919050565b6108928161087f565b82525050565b60006020820190506108ad6000830184610889565b92915050565b600060208201905081810360008301526108cd8184610646565b905092915050565b600281106108e257600080fd5b50565b6000813590506108f4816108d5565b92915050565b6000602082840312156109105761090f61046d565b5b600061091e848285016108e5565b91505092915050565b6000819050919050565b61093a81610927565b82525050565b60006020820190506109556000830184610931565b92915050565b7f4e487b7100000000000000000000000000000000000000000000000000000000600052602160045260246000fd5b6002811061099b5761099a61095b565b5b50565b60008190506109ac8261098a565b919050565b60006109bc8261099e565b9050919050565b6109cc816109b1565b82525050565b60006020820190506109e760008301846109c3565b92915050565b7f4e487b7100000000000000000000000000000000000000000000000000000000600052602260045260246000fd5b60006002820490506001821680610a3457607f821691505b602082108103610a4757610a466109ed565b5b50919050565b60008190508160005260206000209050919050565b60006020601f8301049050919050565b600082821b905092915050565b600060088302610aaf7fffffffffffffffffffffffffffffffffffffffffffffffffffffffffffffffff82610a72565b610ab98683610a72565b95508019841693508086168417925050509392505050565b6000819050919050565b6000610af6610af1610aec84610506565b610ad1565b610506565b9050919050565b6000819050919050565b610b1083610adb565b610b24610b1c82610afd565b848454610a7f565b825550505050565b600090565b610b39610b2c565b610b44818484610b07565b505050565b5b81811015610b6857610b5d600082610b31565b600181019050610b4a565b5050565b601f821115610bad57610b7e81610a4d565b610b8784610a62565b81016020851015610b96578190505b610baa610ba285610a62565b830182610b49565b50505b505050565b600082821c905092915050565b6000610bd060001984600802610bb2565b1980831691505092915050565b6000610be98383610bbf565b9150826002028217905092915050565b610c02826105ef565b67ffffffffffffffff811115610c1b57610c1a6106b9565b5b610c258254610a1c565b610c30828285610b6c565b600060209050601f831160018114610c635760008415610c51578287015190505b610c5b8582610bdd565b865550610cc3565b601f198416610c7186610a4d565b60005b82811015610c9957848901518255600182019150602085019450602081019050610c74565b86831015610cb65784890151610cb2601f891682610bbf565b8355505b6001600288020188555050505b50505050505056fea264697066735822122036c846e989c67321b59d4e1f69f6985daeaf23c33dbd2a8ac73eff071f0d451864736f6c63430008140033",
  "linkReferences": {},
  "deployedLinkReferences": {}
}